{"abi":[{"type":"function","name":"addVulnerability","inputs":[{"name":"_id","type":"string","internalType":"string"},{"name":"_title","type":"string","internalType":"string"},{"name":"_description","type":"string","internalType":"string"},{"name":"_ipfsCid","type":"string","internalType":"string"}],"outputs":[],"stateMutability":"nonpayable"},{"type":"function","name":"getVulnerability","inputs":[{"name":"_id","type":"string","internalType":"string"}],"outputs":[{"name":"","type":"tuple","internalType":"struct BVCRegistry.Vulnerability","components":[{"name":"id","type":"string","internalType":"string"},{"name":"title","type":"string","internalType":"string"},{"name":"description","type":"string","internalType":"string"},{"name":"ipfsCid","type":"string","internalType":"string"}]}],"stateMutability":"view"},{"type":"event","name":"VulnerabilityAdded","inputs":[{"name":"id","type":"string","indexed":false,"internalType":"string"},{"name":"title","type":"string","indexed":false,"internalType":"string"},{"name":"ipfsCid","type":"string","indexed":false,"internalType":"string"}],"anonymous":false}],"bytecode":{"object":"0x6080604052348015600f57600080fd5b506109348061001f6000396000f3fe608060405234801561001057600080fd5b50600436106100365760003560e01c80631a23e71f1461003b5780635707286514610064575b600080fd5b61004e61004936600461058c565b610079565b60405161005b9190610619565b60405180910390f35b610077610072366004610697565b61039c565b005b6100a46040518060800160405280606081526020016060815260200160608152602001606081525090565b6000826040516100b49190610757565b90815260405190819003602001902080546100ce90610773565b90506000036101245760405162461bcd60e51b815260206004820152601c60248201527f56756c6e65726162696c69747920646f6573206e6f742065786973740000000060448201526064015b60405180910390fd5b6000826040516101349190610757565b908152602001604051809103902060405180608001604052908160008201805461015d90610773565b80601f016020809104026020016040519081016040528092919081815260200182805461018990610773565b80156101d65780601f106101ab576101008083540402835291602001916101d6565b820191906000526020600020905b8154815290600101906020018083116101b957829003601f168201915b505050505081526020016001820180546101ef90610773565b80601f016020809104026020016040519081016040528092919081815260200182805461021b90610773565b80156102685780601f1061023d57610100808354040283529160200191610268565b820191906000526020600020905b81548152906001019060200180831161024b57829003601f168201915b5050505050815260200160028201805461028190610773565b80601f01602080910402602001604051908101604052809291908181526020018280546102ad90610773565b80156102fa5780601f106102cf576101008083540402835291602001916102fa565b820191906000526020600020905b8154815290600101906020018083116102dd57829003601f168201915b5050505050815260200160038201805461031390610773565b80601f016020809104026020016040519081016040528092919081815260200182805461033f90610773565b801561038c5780601f106103615761010080835404028352916020019161038c565b820191906000526020600020905b81548152906001019060200180831161036f57829003601f168201915b5050505050815250509050919050565b6000846040516103ac9190610757565b90815260405190819003602001902080546103c690610773565b1590506104155760405162461bcd60e51b815260206004820152601c60248201527f56756c6e65726162696c69747920616c72656164792065786973747300000000604482015260640161011b565b6040518060800160405280858152602001848152602001838152602001828152506000856040516104469190610757565b9081526040519081900360200190208151819061046390826107fc565b506020820151600182019061047890826107fc565b506040820151600282019061048d90826107fc565b50606082015160038201906104a290826107fc565b509050507f867d7b5502fce5d5fd1ce0baa58e077359f4e69c7c250d4d8c17825e241f04ab8484836040516104d9939291906108bb565b60405180910390a150505050565b634e487b7160e01b600052604160045260246000fd5b600082601f83011261050e57600080fd5b813567ffffffffffffffff811115610528576105286104e7565b604051601f8201601f19908116603f0116810167ffffffffffffffff81118282101715610557576105576104e7565b60405281815283820160200185101561056f57600080fd5b816020850160208301376000918101602001919091529392505050565b60006020828403121561059e57600080fd5b813567ffffffffffffffff8111156105b557600080fd5b6105c1848285016104fd565b949350505050565b60005b838110156105e45781810151838201526020016105cc565b50506000910152565b600081518084526106058160208601602086016105c9565b601f01601f19169290920160200192915050565b60208152600082516080602084015261063560a08401826105ed565b90506020840151601f1984830301604085015261065282826105ed565b9150506040840151601f1984830301606085015261067082826105ed565b9150506060840151601f1984830301608085015261068e82826105ed565b95945050505050565b600080600080608085870312156106ad57600080fd5b843567ffffffffffffffff8111156106c457600080fd5b6106d0878288016104fd565b945050602085013567ffffffffffffffff8111156106ed57600080fd5b6106f9878288016104fd565b935050604085013567ffffffffffffffff81111561071657600080fd5b610722878288016104fd565b925050606085013567ffffffffffffffff81111561073f57600080fd5b61074b878288016104fd565b91505092959194509250565b600082516107698184602087016105c9565b9190910192915050565b600181811c9082168061078757607f821691505b6020821081036107a757634e487b7160e01b600052602260045260246000fd5b50919050565b601f8211156107f757806000526020600020601f840160051c810160208510156107d45750805b601f840160051c820191505b818110156107f457600081556001016107e0565b50505b505050565b815167ffffffffffffffff811115610816576108166104e7565b61082a816108248454610773565b846107ad565b6020601f82116001811461085e57600083156108465750848201515b600019600385901b1c1916600184901b1784556107f4565b600084815260208120601f198516915b8281101561088e578785015182556020948501946001909201910161086e565b50848210156108ac5786840151600019600387901b60f8161c191681555b50505050600190811b01905550565b6060815260006108ce60608301866105ed565b82810360208401526108e081866105ed565b905082810360408401526108f481856105ed565b969550505050505056fea2646970667358221220a52f1c93e7c2d05941869a7e1d53c3fd855ec01a35cfe2e72273ee9d3f84600664736f6c634300081c0033","linkReferences":{}},"methodIdentifiers":{"addVulnerability(string,string,string,string)":"57072865","getVulnerability(string)":"1a23e71f"},"id":26}