{"abi":[{"type":"constructor","inputs":[{"name":"initialOwner","type":"address","internalType":"address"}],"stateMutability":"nonpayable"},{"type":"receive","stateMutability":"payable"},{"type":"function","name":"addVulnerability","inputs":[{"name":"_id","type":"bytes32","internalType":"bytes32"},{"name":"_title","type":"string","internalType":"string"},{"name":"_description","type":"string","internalType":"string"},{"name":"_ipfsCid","type":"string","internalType":"string"}],"outputs":[],"stateMutability":"nonpayable"},{"type":"function","name":"getAllVulnerabilityIds","inputs":[],"outputs":[{"name":"","type":"bytes32[]","internalType":"bytes32[]"}],"stateMutability":"view"},{"type":"function","name":"getPaginatedVulnerabilityIds","inputs":[{"name":"page","type":"uint256","internalType":"uint256"},{"name":"pageSize","type":"uint256","internalType":"uint256"}],"outputs":[{"name":"","type":"bytes32[]","internalType":"bytes32[]"}],"stateMutability":"view"},{"type":"function","name":"getVulnerability","inputs":[{"name":"_id","type":"bytes32","internalType":"bytes32"}],"outputs":[{"name":"id","type":"bytes32","internalType":"bytes32"},{"name":"title","type":"string","internalType":"string"},{"name":"description","type":"string","internalType":"string"},{"name":"ipfsCid","type":"string","internalType":"string"},{"name":"isActive","type":"bool","internalType":"bool"}],"stateMutability":"view"},{"type":"function","name":"owner","inputs":[],"outputs":[{"name":"","type":"address","internalType":"address"}],"stateMutability":"view"},{"type":"function","name":"renounceOwnership","inputs":[],"outputs":[],"stateMutability":"nonpayable"},{"type":"function","name":"setVulnerabilityStatus","inputs":[{"name":"_id","type":"bytes32","internalType":"bytes32"},{"name":"_isActive","type":"bool","internalType":"bool"}],"outputs":[],"stateMutability":"nonpayable"},{"type":"function","name":"transferOwnership","inputs":[{"name":"newOwner","type":"address","internalType":"address"}],"outputs":[],"stateMutability":"nonpayable"},{"type":"function","name":"withdraw","inputs":[],"outputs":[],"stateMutability":"nonpayable"},{"type":"event","name":"OwnershipTransferred","inputs":[{"name":"previousOwner","type":"address","indexed":true,"internalType":"address"},{"name":"newOwner","type":"address","indexed":true,"internalType":"address"}],"anonymous":false},{"type":"event","name":"VulnerabilityAdded","inputs":[{"name":"id","type":"bytes32","indexed":false,"internalType":"bytes32"},{"name":"title","type":"string","indexed":false,"internalType":"string"},{"name":"ipfsCid","type":"string","indexed":false,"internalType":"string"}],"anonymous":false},{"type":"event","name":"VulnerabilityUpdated","inputs":[{"name":"id","type":"bytes32","indexed":false,"internalType":"bytes32"},{"name":"isActive","type":"bool","indexed":false,"internalType":"bool"}],"anonymous":false},{"type":"error","name":"OwnableInvalidOwner","inputs":[{"name":"owner","type":"address","internalType":"address"}]},{"type":"error","name":"OwnableUnauthorizedAccount","inputs":[{"name":"account","type":"address","internalType":"address"}]}],"bytecode":{"object":"0x608060405234801561001057600080fd5b5060405161104a38038061104a83398101604081905261002f916100be565b806001600160a01b03811661005e57604051631e4fbdf760e01b81526000600482015260240160405180910390fd5b6100678161006e565b50506100ee565b600080546001600160a01b038381166001600160a01b0319831681178455604051919092169283917f8be0079c531659141344cd1fd0a4f28419497f9722a3daafe3b4186f6b6457e09190a35050565b6000602082840312156100d057600080fd5b81516001600160a01b03811681146100e757600080fd5b9392505050565b610f4d806100fd6000396000f3fe60806040526004361061008a5760003560e01c8063bc82281811610059578063bc82281814610124578063cdd210e614610146578063d5be668514610166578063dc26513b14610186578063f2fde38b146101a657600080fd5b80630f5002c5146100965780633ccfd60b146100d0578063715018a6146100e75780638da5cb5b146100fc57600080fd5b3661009157005b600080fd5b3480156100a257600080fd5b506100b66100b1366004610a71565b6101c6565b6040516100c7959493929190610ad0565b60405180910390f35b3480156100dc57600080fd5b506100e5610442565b005b3480156100f357600080fd5b506100e5610487565b34801561010857600080fd5b506000546040516001600160a01b0390911681526020016100c7565b34801561013057600080fd5b5061013961049b565b6040516100c79190610b24565b34801561015257600080fd5b506100e5610161366004610b67565b6104f3565b34801561017257600080fd5b50610139610181366004610b9c565b6105b4565b34801561019257600080fd5b506100e56101a1366004610c63565b610792565b3480156101b257600080fd5b506100e56101c1366004610d01565b6109b9565b60008181526001602052604081205460609081908190849081036102315760405162461bcd60e51b815260206004820152601c60248201527f56756c6e65726162696c69747920646f6573206e6f742065786973740000000060448201526064015b60405180910390fd5b6000868152600160208181526040808420815160a0810190925280548252928301805491939284019161026390610d31565b80601f016020809104026020016040519081016040528092919081815260200182805461028f90610d31565b80156102dc5780601f106102b1576101008083540402835291602001916102dc565b820191906000526020600020905b8154815290600101906020018083116102bf57829003601f168201915b505050505081526020016002820180546102f590610d31565b80601f016020809104026020016040519081016040528092919081815260200182805461032190610d31565b801561036e5780601f106103435761010080835404028352916020019161036e565b820191906000526020600020905b81548152906001019060200180831161035157829003601f168201915b5050505050815260200160038201805461038790610d31565b80601f01602080910402602001604051908101604052809291908181526020018280546103b390610d31565b80156104005780601f106103d557610100808354040283529160200191610400565b820191906000526020600020905b8154815290600101906020018083116103e357829003601f168201915b50505091835250506004919091015460ff16151560209182015281519082015160408301516060840151608090940151929b919a509850919650945092505050565b61044a6109f4565b600080546040516001600160a01b03909116914780156108fc02929091818181858888f19350505050158015610484573d6000803e3d6000fd5b50565b61048f6109f4565b6104996000610a21565b565b606060028054806020026020016040519081016040528092919081815260200182805480156104e957602002820191906000526020600020905b8154815260200190600101908083116104d5575b5050505050905090565b6104fb6109f4565b60008281526001602052604081205490036105585760405162461bcd60e51b815260206004820152601c60248201527f56756c6e65726162696c69747920646f6573206e6f74206578697374000000006044820152606401610228565b600082815260016020908152604091829020600401805460ff19168415159081179091558251858152918201527f1ddc28f972a4052758d05a323d7d7b7f1e3aae5ae4089a88bb559e9b36df816e910160405180910390a15050565b6060600083116106115760405162461bcd60e51b815260206004820152602260248201527f50616765206e756d626572206d7573742062652067726561746572207468616e604482015261020360f41b6064820152608401610228565b600082116106615760405162461bcd60e51b815260206004820181905260248201527f506167652073697a65206d7573742062652067726561746572207468616e20306044820152606401610228565b60008261066f600186610d81565b6106799190610d94565b905060006106878483610dab565b60025490915081111561069957506002545b60025482106106de5760405162461bcd60e51b815260206004820152601160248201527050616765206f7574206f662072616e676560781b6044820152606401610228565b60006106ea8383610d81565b67ffffffffffffffff81111561070257610702610bbe565b60405190808252806020026020018201604052801561072b578160200160208202803683370190505b509050825b82811015610786576002818154811061074b5761074b610dbe565b90600052602060002001548285836107639190610d81565b8151811061077357610773610dbe565b6020908102919091010152600101610730565b50925050505b92915050565b61079a6109f4565b600084815260016020526040902054156107f65760405162461bcd60e51b815260206004820152601c60248201527f56756c6e65726162696c69747920616c726561647920657869737473000000006044820152606401610228565b6000835111801561080957506064835111155b61084c5760405162461bcd60e51b8152602060048201526014602482015273151a5d1b19481b195b99dd1a081a5b9d985b1a5960621b6044820152606401610228565b6000825111801561086057506101f4825111155b6108ac5760405162461bcd60e51b815260206004820152601a60248201527f4465736372697074696f6e206c656e67746820696e76616c69640000000000006044820152606401610228565b6040805160a0810182528581526020808201868152828401869052606083018590526001608084018190526000898152928190529390912082518155905191929091908201906108fc9082610e23565b50604082015160028201906109119082610e23565b50606082015160038201906109269082610e23565b50608091909101516004909101805460ff1916911515919091179055600280546001810182556000919091527f405787fa12a823e0f2b7631cc41b3ba8828b3321ca811111fa75cd3aa3bb5ace018490556040517fdd672045b102bde921ab1026ec837619a39e5eb13b19084ed92b328d6b1e873f906109ab90869086908590610ee2565b60405180910390a150505050565b6109c16109f4565b6001600160a01b0381166109eb57604051631e4fbdf760e01b815260006004820152602401610228565b61048481610a21565b6000546001600160a01b031633146104995760405163118cdaa760e01b8152336004820152602401610228565b600080546001600160a01b038381166001600160a01b0319831681178455604051919092169283917f8be0079c531659141344cd1fd0a4f28419497f9722a3daafe3b4186f6b6457e09190a35050565b600060208284031215610a8357600080fd5b5035919050565b6000815180845260005b81811015610ab057602081850181015186830182015201610a94565b506000602082860101526020601f19601f83011685010191505092915050565b85815260a060208201526000610ae960a0830187610a8a565b8281036040840152610afb8187610a8a565b90508281036060840152610b0f8186610a8a565b91505082151560808301529695505050505050565b602080825282518282018190526000918401906040840190835b81811015610b5c578351835260209384019390920191600101610b3e565b509095945050505050565b60008060408385031215610b7a57600080fd5b8235915060208301358015158114610b9157600080fd5b809150509250929050565b60008060408385031215610baf57600080fd5b50508035926020909101359150565b634e487b7160e01b600052604160045260246000fd5b600082601f830112610be557600080fd5b813567ffffffffffffffff811115610bff57610bff610bbe565b604051601f8201601f19908116603f0116810167ffffffffffffffff81118282101715610c2e57610c2e610bbe565b604052818152838201602001851015610c4657600080fd5b816020850160208301376000918101602001919091529392505050565b60008060008060808587031215610c7957600080fd5b84359350602085013567ffffffffffffffff811115610c9757600080fd5b610ca387828801610bd4565b935050604085013567ffffffffffffffff811115610cc057600080fd5b610ccc87828801610bd4565b925050606085013567ffffffffffffffff811115610ce957600080fd5b610cf587828801610bd4565b91505092959194509250565b600060208284031215610d1357600080fd5b81356001600160a01b0381168114610d2a57600080fd5b9392505050565b600181811c90821680610d4557607f821691505b602082108103610d6557634e487b7160e01b600052602260045260246000fd5b50919050565b634e487b7160e01b600052601160045260246000fd5b8181038181111561078c5761078c610d6b565b808202811582820484141761078c5761078c610d6b565b8082018082111561078c5761078c610d6b565b634e487b7160e01b600052603260045260246000fd5b601f821115610e1e57806000526020600020601f840160051c81016020851015610dfb5750805b601f840160051c820191505b81811015610e1b5760008155600101610e07565b50505b505050565b815167ffffffffffffffff811115610e3d57610e3d610bbe565b610e5181610e4b8454610d31565b84610dd4565b6020601f821160018114610e855760008315610e6d5750848201515b600019600385901b1c1916600184901b178455610e1b565b600084815260208120601f198516915b82811015610eb55787850151825560209485019460019092019101610e95565b5084821015610ed35786840151600019600387901b60f8161c191681555b50505050600190811b01905550565b838152606060208201526000610efb6060830185610a8a565b8281036040840152610f0d8185610a8a565b969550505050505056fea2646970667358221220582fd5427c1527f48c96b9802df643cafc7c3ad47a559ccb1a054c176815ac7b64736f6c634300081c0033","linkReferences":{}},"methodIdentifiers":{"addVulnerability(bytes32,string,string,string)":"dc26513b","getAllVulnerabilityIds()":"bc822818","getPaginatedVulnerabilityIds(uint256,uint256)":"d5be6685","getVulnerability(bytes32)":"0f5002c5","owner()":"8da5cb5b","renounceOwnership()":"715018a6","setVulnerabilityStatus(bytes32,bool)":"cdd210e6","transferOwnership(address)":"f2fde38b","withdraw()":"3ccfd60b"},"id":27}